:0400000091EF3DF04F
:107A40007F090670103010707E137E701030107039
:107A50000A6E0F0E066E000E076E0A50B2EC3DF075
:107A600012000A6E0C0E066E010E076E0A50B2EC82
:107A70003DF012000B6E0F0E0A160A0E066E0AC0BB
:107A800007F00B50B2EC3DF012000A6E000E0B6EC8
:107A9000070E0B6401D012000BC006F0000E076E3B
:107AA0000A50B2EC3DF00B2AF3D7040EDAEC3DF0AD
:107AB000000E1B6E060E1B6401D010D01B28016E39
:107AC0001B50010DF70EF324F66E7F0EF420F76EB7
:107AD0000800F55003EC3EF01B2AECD75BEC3EF0BF
:107AE000FDD7036E080E056E0550D8B4120005C010
:107AF00001F0FF0E0126010E026E012A02D0D8907D
:107B00000236012EFCD70250046E829603500414F4
:107B10000009D8B402D0828801D0829882860506F6
:107B2000E3D7400EF66E7A0EF76E000EF86E00EE9A
:107B30001CF010EE10F00900F5CFEEFFE550E1501B
:107B4000FAE100EE60F0500EEE6AE806FDE100EEAC
:107B50002CF00A0EEE6AE806FDE1000EF86E000158
:107B600055EF3DF0096E0904D8A409D0828A065069
:107B700071EC3DF0075071EC3DF0829A828A010E63
:107B800009641200828A065071EC3DF0075071ECD6
:107B90003DF0020E086E07D0000E71EC3DF0000EB5
:107BA00071EC3DF0082A0850095CD8B0F5D7829AEC
:107BB000828A12000C6E94989496949A010E0D6E1F
:107BC0001DD00B0E066E070E076E0D50B2EC3DF089
:107BD000090E066E000E076E0D50B2EC3DF00D5012
:107BE00031EC3DF00D5028EC3DF00D5045EC3DF0F2
:107BF0000F0E0A6E0D503AEC3DF00D2A0D500C5C44
:107C0000D8A01200DED70C6E0C50026E036AD8901A
:107C100002360336D89002360336D8900236033641
:107C2000000E02240D6EFE0E03200E6E000E106E6E
:107C3000070E106401D015D04F0E0D24F66E7E0E87
:107C40000E20F76E1050010D040EF324D96E000EB5
:107C5000F420DA6E0800F5CFDFFF0D4A0E2A102A55
:107C6000E7D701280F6E000E116E070E116401D0C8
:107C700012001150010D040EF324D96E000EF420F1
:107C8000DA6E11500FC002F0036AD8900236033644
:107C9000D89002360336D890023603360226000EFC
:107CA0000322600E0224E16E000E0320E26EDFCF9D
:107CB000E7FF112ADAD7600E106E000E116E680E03
:107CC000126E000E136E700E146E000E156E780E8E
:107CD000166E000E176E000E196E000E186E19BE8D
:107CE00008D0195005E1300E185CD8B0120001D050
:107CF0001200010E1A6E080E1A6401D04ED010C088
:107D0000D9FF11C0DAFFDF500C6E1AC006F00CC0AC
:107D100007F0040EB2EC3DF0010E1024106E000EC0
:107D20001120116E12C0D9FF13C0DAFFDF500D6EA3
:107D30001AC006F00DC007F0030EB2EC3DF0010EC4
:107D40001224126E000E1320136E14C0D9FF15C03A
:107D5000DAFFDF500E6E1AC006F00EC007F0020EFA
:107D6000B2EC3DF0010E1424146E000E1520156EB9
:107D700016C0D9FF17C0DAFFDF500F6E1AC006F029
:107D80000FC007F0010EB2EC3DF0010E1624166E86
:107D9000000E1720176E1A2AAED7080E18240A6E86
:107DA000000E19200B6E600E0A24106E000E0B20C0
:107DB000116E100E18240A6E000E19200B6E600E44
:107DC0000A24126E000E0B20136E180E18240A6E71
:107DD000000E19200B6E600E0A24146E000E0B208C
:107DE000156E200E18240A6E000E19200B6E600E00
:107DF0000A24166E000E0B20176E16C0D9FF17C08E
:107E0000DAFFDF500A6E0B6AFD0E0A1818E17F0ECA
:107E10000B18D8A414D0680E106E000E116E700EE0
:107E2000126E000E136E780E146E000E156E800E1C
:107E3000166E000E176E000E196E000E186E184AA0
:107E4000192A19BE56D7195001E14DD7120000006A
:107E5000000000000000000033333F33331E0C00ED
:107E60003F66663E66663F003C66030303663C0071
:107E70001F36666666361F007F46161E16467F0052
:107E80000F06161E16467F007C66730303663C00D1
:107E90003333333F333333001E0C0C0C0C0C1E00F9
:107EA0001E333330303078006766361E3666670022
:107EB0007F66460606060F0063636B7F7F7763006D
:107EC0006363737B6F6763001C36636363361C00F8
:107ED0000F06063E66663F00381E3B3333331E00F6
:107EE0006766363E66663F001E33380E07331E0057
:107EF0001E0C0C0C0C2D3F003F3333333333330057
:107F00000C1E33333333330063777F6B636363005B
:107F100063361C1C366363001E0C0C1E33333300A7
:107F20007F664C1831637F006E333E301E000000C8
:107F30003B66663E060607001E3303331E00000044
:107F40006E33333E303038001E033F331E000000D6
:107F50000F06060F06361C1F303E33336E0000003E
:107F60006766666E360607001E0C0C0C0E000C1EB3
:107F7000333330303000300067361E366606070077
:107F80001E0C0C0C0C0C0E00636B7F7F330000008A
:107F9000333333331F0000001E3333331E00000F12
:107FA000063E66663B000078303E33336E000000CC
:107FB0000F06666E3B0000001F301E033E000000EF
:107FC000182C0C0C3E0C08006E33333333000000C9
:107FD0000C1E333333000000367F7F6B63000000DC
:107FE00063361C366300001F303E3333330000001D
:107FF0003F260C193F00004748525345000000003F
:020000040020DA
:08000000FFFFFFFFFFFFFFFF00
:020000040030CA
:0E000000FF081F1FFF8981FF0FC00FE00F4098
:00000001FF
