:04000000B1EF10F05C
:1006000000010000000A00000064000000E8030090
:100610000010270000A086010040420F008096983D
:100620000000E1F50500CA9A3B20202050494331E3
:10063000384634354B3230202020002020204D6FAA
:1006400064756C6F204750532020200045737065FF
:1006500072616E646F207365F1616C00256C752E9C
:1006600025362E366C7500244750474C4C002C0024
:010670000089
:100672001A501B10D8B40BD01AC0D9FF1BC0DAFF16
:1006820018C0DEFF19C0DDFF02D0184A192A18C0AF
:10069200D9FF19C0DAFFDF501D6E1D50B0EC11F00A
:1006A200D8B0F3D7000E1E6E2D0E1D18D8A403D09D
:1006B200010E1E6E04D02B0E1D18D8A402D0184AAB
:1006C200192A000E1D6E000E206E000E216E000E05
:1006D200226E000E236E000E1F6E1EB80AD018C0C6
:1006E200D9FF19C0DAFF2E0EDE18D8A402D01E8858
:1006F2003CD018C0D9FF19C0DAFFDF500BEC12F062
:10070200D8A036D01E82080E1D18D8B42CD01EB820
:100712001F061D2A20C001F021C002F022C003F0F2
:1007220023C004F00A0E056E000E066E000E076E60
:10073200000E086EDCEC10F001C020F002C021F0C7
:1007420003C022F004C023F018C0D9FF19C0DAFF99
:10075200DF501C6ED00E1C261C502026000E2122BB
:100762002222232202D01EA81F2A184A192AB5D7EC
:10077200000E1D6E18C0D9FF19C0DAFF650EDE1813
:10078200D8B408D018C0D9FF19C0DAFF450EDE1858
:10079200D8A45ED0184A192A18C0D9FF19C0DAFFA6
:1007A2002D0EDE18D8A402D01E8608D018C0D9FF9C
:1007B20019C0DAFF2B0EDE18D8A402D0184A192A63
:1007C20018C0D9FF19C0DAFF300EDE18D8B4F6D738
:1007D20018C0D9FF19C0DAFFDF500BEC12F0D8A015
:1007E20035D018C0D9FF19C0DAFFDF50D00F1D6E07
:1007F200184A192A18C0D9FF19C0DAFFDF500BECCA
:1008020012F0D8A023D018C0D9FF19C0DAFFDF50E8
:100812001C6E1D500A0DF3501C24D00F1D6E184A79
:10082200192A18C0D9FF19C0DAFFDF500BEC12F0F9
:10083200D8A00CD018C0D9FF19C0DAFFDF501C6E47
:100842001D500A0DF3501C24D00F1D6E1EB61D6CD8
:100852001D501F261A501B10D8A41EA208D01AC061
:10086200D9FF1BC0DAFF18C0DEFF19C0DDFF20C0B0
:1008720009F021C00AF022C00BF023C00CF0E0EC1A
:100882000FF009C020F00AC021F00BC022F0205066
:1008920021102210D8A407D0000E186E000E196E77
:1008A200000E1A6E12001FAE56D01F6C16D020C05A
:1008B20009F021C00AF022C00BF0030E0C6E150ED7
:1008C2000D6E500E0E6EA4EC0DF009C020F00AC0A1
:1008D20021F00BC022F0F60E1F261F50800A760F61
:1008E200D8A016D0E4D720C009F021C00AF022C057
:1008F2000BF0000E0C6E200E0D6E410E0E6EA4EC6F
:100902000DF009C020F00AC021F00BC022F01F0632
:100912001F50D8A4E8D720C001F021C002F022C0A5
:1009220003F0000E046E800E056E000E066ED4EC0F
:100932000EF0D8B068D01EA007D0000E186E800E40
:10094200196E800E1A6E1200000E186E800E196E4D
:10095200000E1A6E12001F50800A7F0FD8B017D0F7
:1009620052D020C009F021C00AF022C00BF0030EC1
:100972000C6E150E0D6E500E0E6E2AEC0DF009C0A7
:1009820020F00AC021F00BC022F0F60E1F260A0E3C
:100992001F60E7D715D020C009F021C00AF022C09D
:1009A2000BF0000E0C6E200E0D6E410E0E6E2AEC38
:1009B2000DF009C020F00AC021F00BC022F01F0682
:1009C2001F50D8A4E8D7FF0E016E7F0E026E7F0E75
:1009D200036E20C004F021C005F022C006F0D4EC62
:1009E2000EF0D8B010D01EA007D0000E186E800EE8
:1009F200196E800E1A6E1200000E186E800E196E9D
:100A0200000E1A6E12001EA00ED020C001F021C0EE
:100A120002F022C003F0D6EC11F001C020F002C0B7
:100A220021F003C022F020C018F021C019F022C02A
:100A32001AF01200000E546E000E536E14D058506D
:100A4200336E346A33C001F034C002F01AEC12F093
:100A5200576ED40E5324D96E040E5420DA6E57C04A
:100A6200DFFF534A542A2B0E535C010E5458D8A070
:100A7200E6D7000EE8CFFFF5D40E106E040E116E0D
:100A8200670E126E060E136E1CEC0FF010C055F0BE
:100A920011C056F055505610D8B4120055C010F07F
:100AA20056C011F06E0E126E060E136E1CEC0FF095
:100AB20010C051F011C052F051505210D8B412006F
:100AC20020EE07F05550D9265650DA222C0EDE18A9
:100AD200D8B41200010E5124556E000E5220566EEB
:100AE20055C010F056C011F06E0E126E060E136E47
:100AF2001CEC0FF010C051F011C052F051505210C6
:100B0200D8B41200710E016E000E026E000E046E59
:100B1200000E036E000E066E080E056E9AEC11F0C2
:100B2200710E016E000E026E55C003F056C004F045
:100B3200000E066E020E056E07EC11F0710E246EA9
:100B4200000E256EFAEC11F05CC0D9FF5DC0DAFF31
:100B520024C0DEFF25C0DEFF26C0DEFF020E5526C2
:100B6200000E562251C0D9FF52C0DAFF000EDF6ECE
:100B720055C024F056C025F0FAEC11F024C035F02F
:100B820025C036F026C037F05CC0D9FF5DC0DAFF61
:100B9200DECF27F0DECF28F0DDCF29F0000E0C6E7D
:100BA200700E0D6E420E0E6E35C009F036C00AF0A0
:100BB20037C00BF0A4EC0DF009C02AF00AC02BF0EC
:100BC2000BC02CF082EC08F05CC0D9FF5DC0DAFFEC
:100BD20027C0DEFF28C0DEFF29C0DEFF010E512440
:100BE200556E000E5220566E55C010F056C011F0D0
:100BF2006E0E126E060E136E1CEC0FF010C051F04A
:100C020011C052F051505210D8B4120055C0D9FF41
:100C120056C0DAFF530EDE18D8A41CD05CC0D9FF30
:100C22005DC0DAFFDECF09F0DECF0AF0DDCF0BF0D8
:100C3200000E0C6E800E0D6EBF0E0E6E2AEC0DF0C5
:100C42005CC0D9FF5DC0DAFF09C0DEFF0AC0DEFF6B
:100C52000BC0DEFF010E5124556E000E5220566E5F
:100C620055C010F056C011F06E0E126E060E136EC5
:100C72001CEC0FF010C051F011C052F05150521044
:100C8200D8B41200710E016E000E026E000E046ED8
:100C9200000E036E000E066E080E056E9AEC11F041
:100CA200710E016E000E026E55C003F056C004F0C4
:100CB200000E066E030E056E07EC11F0710E246E27
:100CC200000E256EFAEC11F05EC0D9FF5FC0DAFFAC
:100CD20024C0DEFF25C0DEFF26C0DEFF030E552640
:100CE200000E562251C0D9FF52C0DAFF000EDF6E4D
:100CF20055C024F056C025F0FAEC11F024C035F0AE
:100D020025C036F026C037F05EC0D9FF5FC0DAFFDB
:100D1200DECF27F0DECF28F0DDCF29F0000E0C6EFB
:100D2200700E0D6E420E0E6E35C009F036C00AF01E
:100D320037C00BF0A4EC0DF009C02AF00AC02BF06A
:100D42000BC02CF082EC08F05EC0D9FF5FC0DAFF66
:100D520027C0DEFF28C0DEFF29C0DEFF010E5124BE
:100D6200556E000E5220566E55C010F056C011F04E
:100D72006E0E126E060E136E1CEC0FF010C051F0C8
:100D820011C052F051505210D8B4120055C0D9FFC0
:100D920056C0DAFF570EDE18D8A412005EC0D9FF83
:100DA2005FC0DAFFDECF09F0DECF0AF0DDCF0BF055
:100DB200000E0C6E800E0D6EBF0E0E6E2AEC0DF044
:100DC2005EC0D9FF5FC0DAFF09C0DEFF0AC0DEFFE6
:100DD2000BC0DEFF12001B0E286E000E296E7ED1A4
:100DE200250E3218D8B409D017C0D9FF18C0DAFFBF
:100DF20032C0DFFF174A182A71D1000E2F6E000E83
:100E02002E6E000E276E19C0F6FF1AC0F7FF0800FB
:100E1200F5500BEC12F0D8A032D0000E2F6E000E5F
:100E22002E6E2EC001F02FC002F0000E046E0A0ECC
:100E3200036EC3EC11F001C02EF002C02FF0D00EF1
:100E4200236EFF0E246E19C0F6FF1AC0F7FF0800CA
:100E5200F550256E266A2350252624502622255039
:100E62002E2626502F22194A1A2A19C0F6FF1AC016
:100E7200F7FF0800F5500BEC12F0D8B0D2D719C02A
:100E8200F6FF1AC0F7FF0800F5502E0AD8A42DD09D
:100E9200194A1A2A000E316E000E306E1BD030C075
:100EA20001F031C002F0000E046E0A0E036EC3ECB4
:100EB20011F019C0F6FF1AC0F7FF0800F55001261D
:100EC200000E0222D00E0124306EFF0E0220316E7F
:100ED200194A1A2A19C0F6FF1AC0F7FF0800F5507E
:100EE2000BEC12F0D8A00BD0DAD7000E316E000E48
:100EF200306E05D0278803D0C00E271214D019C037
:100F0200F6FF1AC0F7FF194A1A2A0800F5CF32F085
:100F12003250000AD8B4EED06C0AD8B4EBD7190A12
:100F2200D8B4EAD7DBD027A80ED028C0D9FF29C071
:100F3200DAFFDECF2AF0DECF2BF0DECF2CF0DECFD1
:100F42002DF0040E0FD028C0D9FF29C0DAFFDECF62
:100F520023F0DDCF24F023C02AF024C02BF02C6A2A
:100F62002D6A020E2826000E292230503110D8A4F4
:100F720008D02A502B102C102D10D8A402D0304AA1
:100F8200312A010E326E0A0E3218D8B418D03250FD
:100F9200040D010EF324F66E060EF420F76E09001E
:100FA200F5502A5C0900F5502B580900F5502C58D1
:100FB2000900F5502D58D8A002D0322AE4D7800E6D
:100FC20032BE7F0E236E3050325C3150800A23587D
:100FD200D8B003D030C032F010D03150800A236E26
:100FE2003250305C800E32BE7F0E2358D8B005D00E
:100FF2003250306E316A30BE3106800E32BE7F0E04
:10100200236E2E50325C2F50800A2358D8B007D05E
:1010120032502E5E000E32BEFF0E2F5A04D0000E4A
:101022002F6E000E2E6E2E502F10D8B44FD017C038
:10103200D9FF18C0DAFF200EDF6E174A182A2E06D3
:10104200D8A02F06F0D730C023F031C024F0D890BA
:1010520023362436D89023362436010E2324F66E06
:10106200060E2420F76E0900F5CF05F00900F5CF32
:1010720006F00900F5CF07F00A00F5CF08F02AC004
:1010820001F02BC002F02CC003F02DC004F09FEC45
:101092000FF001C00EF002C00FF003C010F004C048
:1010A20011F00A0E126E000E136E000E146E000E78
:1010B200156E50EC10F00E50300F326E17C0D9FF83
:1010C20018C0DAFF32C0DFFF174A182A3006D8A04C
:1010D20031063028B8E13128D8A4B5D719C0F6FFB7
:1010E2001AC0F7FF194A1A2A0800F5CF32F0325017
:1010F200D8A476D617C0D9FF18C0DAFF000EDF6E6B
:10110200120029C02DF02E6A2F6A28342D3601E3F1
:101112002E802D50326E2CC02DF02E6A2F6A2B3469
:101122002D3601E32E802D50316E3250D8B40BD0C3
:101132003150325CD8B00ED03250000831242D6EBE
:10114200180E2D6407D02AC027F02BC028F02CC01F
:1011520029F012003150D8B40BD03250315CD8B0E3
:101162000ED03150000832242D6E180E2D6407D097
:1011720027C027F028C028F029C029F01200060E47
:10118200306E29BE308E2CBE308C288EFF0E271674
:10119200FF0E2816000E29162B8EFF0E2A16FF0EA2
:1011A2002B16000E2C163150325CD8B01BD0D890C2
:1011B2002A362B362C36310632503118D8B40DD09F
:1011C200300630C02DF0070E2D16D8B406D0EFD75A
:1011D200D890293228322732322A31503218D8B4E4
:1011E2001FD0F6D73250315CD8B01AD0D8902736FB
:1011F20028362936320632503118D8B40DD030068E
:1012020030C02DF0070E2D16D8B406D0EFD7D890E7
:101212002C322B322A32312A31503218D8A4F7D745
:1012220030AE0CD0FF0E271AFF0E281AFF0E291A15
:10123200010E2726000E2822000E292230AC0CD0E7
:10124200FF0E2A1AFF0E2B1AFF0E2C1A010E2A2647
:10125200000E2B22000E2C22000E306E27502A2662
:1012620028502B2229502C222CAE0ED0FF0E2A1AE7
:10127200FF0E2B1AFF0E2C1A010E2A26000E2B220D
:10128200000E2C22010E306E2AC001F02BC002F09B
:101292002CC003F032C004F030C005F07DEC0EF03B
:1012A20001C027F002C028F003C029F01200036E2B
:1012B200F10E0318D8A402D0EE0E036E839083823F
:1012C200016A03AE01D0012A010E01160132013278
:1012D200835001187F0B0118836E03C001F0060EC4
:1012E200026ED8900132022EFCD7010E0116013A8D
:1012F2000146014683500118BF0B0118836E03C0DB
:1013020001F0050E026ED8900132022EFCD7010EBA
:101312000116013A014683500118DF0B0118836E52
:1013220003C001F0013A0F0E0116010E0116013A37
:1013320083500118EF0B0118836E030EE82EFED7BF
:1013420000F08380030EE82EFED700F0839003C0E6
:1013520001F0D8900132D8900132D8900132010EBA
:10136200011601320132835001187F0B0118836E7E
:1013720003C001F0D8900132D8900132010E01165B
:10138200013A0146014683500118BF0B0118836ED2
:1013920003C001F0D8900132010E0116013A014654
:1013A20083500118DF0B0118836E03C001F0010E98
:1013B2000116013A83500118EF0B0118836E030ED8
:1013C200E82EFED700F08380030EE82EFED700F051
:1013D2008390030EE82EFED700F00F0E016E480E2A
:1013E200E82EFED7012EFCD712000FC013F010C05A
:1013F20014F011C015F012C016F0060ED890133674
:10140200143615361636E82EF9D7131E141E151E7D
:10141200161E132A000E142215221622000E132461
:10142200016E350E1420026E0C0E1520036E000E96
:101432001620046E0FC017F010C018F011C019F07A
:1014420012C01AF0060ED8901736183619361A3608
:10145200E82EF9D717C005F018C006F019C007F03A
:101462001AC008F017EC0EF001C01BF002C01CF00D
:101472001C04D8A044D00FC013F010C014F011C047
:1014820015F012C016F0040ED89013361436153625
:101492001636E82EF9D7131E141E151E161E132A11
:1014A200000E142215221622000E1324016E350E90
:1014B2001420026E0C0E1520036E000E1620046E10
:1014C2000FC017F010C018F011C019F012C01AF0B6
:1014D200040ED8901736183619361A36E82EF9D770
:1014E20017C005F018C006F019C007F01AC008F0BE
:1014F20017EC0EF001C01BF002C01CF0AC841C04FF
:10150200D8B012001BC0AFFFAC98AB8E948E948CF7
:10151200AB88AC8A1200036E83908392016A03AE99
:1015220001D0012A010E0116013201328350011845
:101532007F0B0118836E03C001F0060E026ED89075
:101542000132022EFCD7010E0116013A0146014674
:1015520083500118BF0B0118836E03C001F0050E02
:10156200026ED8900132022EFCD7010E0116013A0A
:10157200014683500118DF0B0118836E03C001F08E
:10158200013A0F0E0116010E0116013A835001189D
:10159200EF0B0118836E030EE82EFED700F0838056
:1015A200030EE82EFED700F0839003C001F0D8901E
:1015B2000132D8900132D8900132010E0116013267
:1015C2000132835001187F0B0118836E03C001F0B2
:1015D200D8900132D8900132010E0116013A01462B
:1015E200014683500118BF0B0118836E03C001F03E
:1015F200D8900132010E0116013A014683500118BA
:10160200DF0B0118836E03C001F0010E0116013ACF
:1016120083500118EF0B0118836E030EE82EFED7DC
:1016220000F08380030EE82EFED700F083900F0EA9
:10163200016E480EE82EFED7012EFCD71200959EB1
:10164200959C959A959895909592839E839C839A62
:101652008398839083920F0E046E480EE82EFED775
:10166200042EFCD70F0E046E480EE82EFED7042E71
:10167200FCD70F0E046E480EE82EFED7042EFCD7C0
:101682000F0E046E480EE82EFED7042EFCD70F0E66
:10169200046E480EE82EFED7042EFCD70F0E046E01
:1016A200480EE82EFED7042EFCD7010E056E1ED082
:1016B200839E839C838A838883908392839E839C68
:1016C200838A838883808392030EE82EFED700F0FC
:1016D200839E839C838A8388839083920F0E046EF9
:1016E200480EE82EFED7042EFCD7052A030E056409
:1016F200DFD7839E839C838A839883908392839E81
:10170200839C838A839883808392030EE82EFED77C
:1017120000F0839E839C838A8398839083920F0E2A
:10172200046E480EE82EFED7042EFCD7280E056E56
:1017320005508CEC0AF0100E056E05508CEC0AF088
:10174200010E056E05508CEC0AF00F0E056E055069
:101752008CEC0AF01200600E466E000E476E3BAE35
:1017620016D046C0D9FF47C0DAFF2D0EDF6E464ABB
:10177200472A39C001F03AC002F03BC003F0D6EC70
:1017820011F001C039F002C03AF003C03BF039C099
:1017920018F03AC019F03BC01AF0B0EC0CF018C0C7
:1017A20042F019C043F01AC044F01BC045F039C0E2
:1017B20033F03AC034F03BC035F042C009F043C0C8
:1017C2000AF044C00BF045C00CF083EC10F009C0E5
:1017D20036F00AC037F00BC038F029EC11F033C0F4
:1017E20039F034C03AF035C03BF0240E0C6E740E62
:1017F2000D6E490E0E6E39C009F03AC00AF03BC0B8
:101802000BF02AEC0DF009C018F00AC019F00BC059
:101812001AF0B0EC0CF018C03EF019C03FF01AC03C
:1018220040F01BC041F046C017F047C018F05C0EF4
:10183200196E060E1A6E42C01BF043C01CF044C063
:101842001DF045C01EF03EC01FF03FC020F040C05A
:1018520021F041C022F0ECEC06F0600E396E000E71
:101862003A6E12000F0EC16ED388D38AD38C939036
:10187200939220EC0BF00C0E8CEC0AF0010E8CEC27
:101882000AF0010E046E290E056E060E066E010E9A
:101892001CEC10F0010E046E3B0E056E060E066E79
:1018A200020E1CEC10F0020E506E040E4F6EBA0EB9
:1018B200E82EFED74F2EFCD7502EFAD700F000F0BC
:1018C200010E8CEC0AF0010E046E4C0E056E060E33
:1018D200066E010E1CEC10F0800E0F6E250E106EBF
:1018E200000E116E000E126EF6EC09F09D8AF28E59
:1018F200F28C1A0E4F6EF80EE82EFED74F2EFCD742
:1019020000F000F01BEC05F0010E046E3A0E056EBD
:10191200060E066E010E1CEC10F05CC0D9FF5DC015
:10192200DAFFDECF48F0DECF49F0DDCF4AF083ECBC
:1019320011F0010E046E3A0E056E060E066E010ED1
:101942001CEC10F05CC0D9FF5DC0DAFFDECF48F0BE
:10195200DECF49F0DDCF4AF083EC11F0D3D71AC0C5
:101962001CF01D6A1E6A19341C3601E31D801C50CE
:10197200266E2650D8A409D0000E186E000E196EDD
:10198200000E1A6E000E1B6E1200170E1C6E18C08F
:101992001DF019C01EF01AC01FF01C28206E04D0C2
:1019A200D8901F321E321D32202EFAD71D50216EC2
:1019B200198EFF0E1816FF0E1916000E1A16185061
:1019C200226E1950236E1A50246E256A8E0E265EE0
:1019D20026AE16D02650800A8F0FD8B009D0000E3E
:1019E200186E000E196E000E1A6E000E1B6E12009B
:1019F200D8902532243223322232263EF9D715D00E
:101A0200170E26640FD0000E186E000E196E000E0F
:101A12001A6E000E1B6E1200D89022362336243620
:101A2200253626062650D8A4F7D72150D8B408D098
:101A3200251E241E231E226C000E23222422252270
:101A420022C018F023C019F024C01AF025C01BF0E0
:101A520012000BC00FF0106A116A0A340F3601E34C
:101A620010800F50126E1250D8A407D0000E096ECB
:101A7200000E0A6E000E0B6E12000EC00FF0106AFE
:101A8200116A0D340F3601E310800F50176E175094
:101A9200D8A407D0000E096E000E0A6E000E0B6E5F
:101AA200120017507B0F12260BC017F00E50171A98
:101AB200800E17160A8E0D8EFF0E0C16FF0E0D16D7
:101AC200000E0E16000E136E000E146E000E156E32
:101AD200070E166E09A006D00C5013260D501422C4
:101AE2000E501522D8900B320A320932D8900C3699
:101AF2000D360E36162EEED7090E166E09A006D03A
:101B02000C5013260D5014220E501522D8900B3271
:101B12000A320932D890153214321332162EEED709
:101B220013C001F014C002F015C003F012C004F09B
:101B320017C005F07DEC0EF001C009F002C00AF0FA
:101B420003C00BF012000BC00FF0106A116A0A34C6
:101B52000F3601E310800F50166E1650D8A407D02E
:101B6200000E096E000E0A6E000E0B6E12000EC001
:101B72000FF0106A116A0D340F3601E310800F5016
:101B8200176E1750D8A407D0000E096E000E0A6E09
:101B9200000E0B6E1200000E136E000E146E000E7D
:101BA200156E1750890F165E0BC017F00E50171ADC
:101BB200800E17160A8EFF0E0916FF0E0A16000E69
:101BC2000B160D8EFF0E0C16FF0E0D16000E0E16C6
:101BD200180E126ED8901336143615360C50095C56
:101BE2000D500A580E500B58D8A007D00C50095E61
:101BF2000D500A5A0E500B5A1380D89009360A36E5
:101C02000B36122EE7D713C001F014C002F015C034
:101C120003F016C004F017C005F07DEC0EF001C011
:101C220009F002C00AF003C00BF01200000E0A6EA7
:101C320008AE0AD0081E071E061E056C000E0622FC
:101C420007220822010E0A6E04AE0AD0041E031EE9
:101C5200021E016C000E022203220422010E0A1A45
:101C6200000E0B6E000E0C6E000E0D6E000E0E6E50
:101C72000550061007100810D8B42AD0010E096EBC
:101C820006D0D8900536063607360836092A08AE39
:101C9200F8D7D8900B360C360D360E360550015C4F
:101CA200065002580750035808500458D8A009D0CB
:101CB2000550015E0650025A0750035A0850045A52
:101CC2000B80D8900832073206320532092EE1D74E
:101CD2000A50D8B408D00E1E0D1E0C1E0B6C000E3E
:101CE2000C220D220E220BC001F00CC002F00DC01E
:101CF20003F00EC004F012000450D8B405D0015015
:101D020002100310D8A40CD0000E016E000E026E59
:101D1200000E036E1200042AD890033202320132FE
:101D2200000E0114066E000E0214076EFE0E03145E
:101D3200086E065007100810D8B40CD0ECD7042A4D
:101D4200010E0126000E0222000E0322D890033259
:101D520002320132000E0114066E000E0214076EEA
:101D6200FF0E0314086E065007100810D8B406D0F0
:101D7200E6D70406D89001360236033602BE03D0F7
:101D8200020E0460F6D704A0029ED89004320450DA
:101D920003120550D8A4038E01C001F002C002F064
:101DA20003C003F0120003AE16D001C007F002C058
:101DB20008F003C009F0071E081E091E072A000EBC
:101DC20008220922000E0724016E000E0820026E6E
:101DD200800E0920036E06AE16D004C007F005C0BF
:101DE20008F006C009F0071E081E091E072A000E89
:101DF20008220922000E0724046E000E0820056E38
:101E0200800E0920066E000E011A000E021A800EC4
:101E1200031A000E041A000E051A800E061A045048
:101E2200015C0550025806500358D8B002D0D89031
:101E32001200D880120031D010C007F011C008F093
:101E420012C009F013C00AF012C001F013C002F070
:101E520049EC11F001C00BF002C00CF05EEC0FF087
:101E620007500810D8A405D010C010F011C011F00E
:101E72001200010E1024016E000E1120026E12C01B
:101E8200F6FF13C0F7FF0800F550036E046A68EC12
:101E920011F001C010F002C011F010501110D8B4AE
:101EA20007D010C0D9FF11C0DAFFDF50D8A4C4D7C1
:101EB200000E106E000E116E120033D007C0D9FF53
:101EC20008C0DAFFDF50D8B40FD007C0D9FF08C06E
:101ED200DAFFDF500D6E09C0F6FF0AC0F7FF0800F7
:101EE200F5500D18D8B419D009C0F6FF0AC0F7FF93
:101EF2000800F5500D6E0E6A0D1E0E1E0D4A0E2ABA
:101F020007C0D9FF08C0DAFFDF500F6E0F500D2453
:101F1200076E000E0E20086E1200074A082A094AB0
:101F22000A2A0B06D8A00C060B28C8E10C28D8A454
:101F3200C5D7000E086E000E076E1200000E096E65
:101F4200000E0A6E000E0B6E000E0C6E055006108F
:101F520007100810D8B42AD0010E0D6E06D0D89002
:101F620005360636073608360D2A08AEF8D7D89059
:101F720009360A360B360C360550015C06500258FB
:101F82000750035808500458D8A009D00550015EE4
:101F92000650025A0750035A0850045A0980D89032
:101FA20008320732063205320D2EE1D709C001F0A0
:101FB2000AC002F00BC003F00CC004F01200000EC5
:101FC200126E8E0E116E0CAE11D00C1E0B1E0A1E5E
:101FD200096C000E0A220B220C22010E126E06D090
:101FE200D8900C320B320A320932112A000E09142F
:101FF2000D6E000E0A140E6E000E0B140F6EFF0E05
:102002000C14106E0D500E100F101010D8A4E8D73B
:1020120009C001F00AC002F00BC003F011C004F0C5
:1020220012C005F07DEC0EF001C009F002C00AF00A
:1020320003C00BF01200076E0DD00450800F08D0C1
:102042000450C00F05D00450940F02D00450D40F96
:10205200086E0DD00750010AD8B4EFD7030AD8B4DE
:10206200EFD7010AD8B4EFD7070AD8B4EFD7085090
:102072008CEC0AF00AD005C0F6FF06C0F7FF080094
:10208200F55058EC09F0054A062A05C0F6FF06C0CD
:10209200F7FF0800F5500009D8B41200ECD712502F
:1020A200131014101510D8B424D0010E166E06D0D9
:1020B200D8901236133614361536162A15AEF8D7BE
:1020C20012500E5C13500F581450105815501158DE
:1020D200D8A008D012500E5E13500F5A1450105A46
:1020E2001550115AD8901532143213321232162E5C
:1020F200E7D70EC00EF00FC00FF010C010F011C0E5
:1021020011F012008E0E116E06D0D8900C320B32E6
:102112000A320932112A000E09140D6E000E0A1439
:102122000E6E000E0B140F6EFF0E0C14106E0D507F
:102132000E100F101010D8A4E8D709C001F00AC081
:1021420002F00BC003F011C004F0000E056E7DEC2E
:102152000EF001C009F002C00AF003C00BF0120039
:10216200500EF66E240EF76E000EF86E00EE5CF066
:1021720010EE04F00900F5CFEEFFE550E150FAE170
:1021820004EED4F011EE2CF0EE6AE550E150FCE1E1
:10219200E250FAE100EE60F01C0EEE6AE806FDE1A4
:1021A20000EE51F00B0EEE6AE806FDE1000EF86E4D
:1021B200000133EF0CF0000E096E000E0A6E000EE5
:1021C2000B6E000E0C6E01A008D0055009260650B9
:1021D2000A2207500B2208500C22D89005360636E8
:1021E20007360836D89004320332023201320150E7
:1021F200021003100410D8A4E6D709C001F00AC0E7
:1022020002F00BC003F00CC004F0120003C009F08E
:1022120004C00AF001C007F002C008F010D009C0E3
:10222200D9FF0AC0DAFFDF500B6E094A0A2A07C03B
:10223200D9FF08C0DAFF0BC0DFFF074A082A0506EC
:10224200D8A006060528EBE10628D8B41200E7D785
:10225200365037103810D8B406D0000E361A000E99
:10226200371A800E381A33C027F034C028F035C030
:1022720029F036C02AF037C02BF038C02CF082EC9F
:1022820008F027C033F028C034F029C035F012001E
:1022920001C005F002C006F002D0054A062A05C0B8
:1022A200F6FF06C0F7FF0800F5500009D8A4F5D7DD
:1022B20001C003F002C004F0031E041E034A042AF4
:1022C20005500324016E06500420026E120001C064
:1022D200D9FF02C0DAFF0350DE18D8A405D001C02E
:1022E20001F002C002F0120001C0D9FF02C0DAFF01
:1022F200014A022ADF50D8A4EAD7000E016E000E6E
:10230200026E120048C039F049C03AF04AC03BF0B0
:102312004B0E3C6E000E3D6EACEC0BF039C04DF036
:102322003AC04EF04DC004F04EC005F0E8EC11F09A
:10233200120001C007F002C008F008D007C0D9FFA0
:1023420008C0DAFF03C0DFFF074A082A0506D8A043
:1023520006060528F3E10628D8B41200EFD7036E6B
:10236200010E026E200E0318D8B408D00E0E0360C0
:1023720003D0090E036002D0000E026E02C001F00B
:102382000130120001500302F3CF05F0F4CF06F042
:1023920001500402F350062602500302F3500626AF
:1023A20005C001F006C002F0120001500210031035
:1023B200D8B406D0000E011A000E021A800E031ABB
:1023C20001C001F002C002F003C003F0120009D004
:1023D20004C0D9FF05C0DAFFDF5058EC09F0044A07
:1023E200052A04C0D9FF05C0DAFFDF50D8B41200B5
:1023F200EFD724C018F025C019F0000E1A6E000E97
:102402001B6E39EC03F018C024F019C025F01AC075
:1024120026F01200036E000E026E3A0E036005D023
:102422002F0E036402D0010E026E02C001F00130D1
:10243200120024EC12F0036E046A03C001F004C01F
:1024420002F0015012009EAAFED7AE5012005900AF
:0224520079000F
:020000040020DA
:08000000FFFFFFFFFFFFFFFF00
:020000040030CA
:0E000000FF081F1FFF8981FF0FC00FE00F4098
:00000001FF
